{
  "contractName": "EthLendTestStorage",
  "abi": [
    {
      "inputs": [],
      "payable": false,
      "stateMutability": "nonpayable",
      "type": "constructor"
    },
    {
      "constant": false,
      "inputs": [
        {
          "name": "_address",
          "type": "address"
        }
      ],
      "name": "allowAccess",
      "outputs": [],
      "payable": false,
      "stateMutability": "nonpayable",
      "type": "function"
    },
    {
      "constant": false,
      "inputs": [
        {
          "name": "_address",
          "type": "address"
        }
      ],
      "name": "denyAccess",
      "outputs": [],
      "payable": false,
      "stateMutability": "nonpayable",
      "type": "function"
    },
    {
      "constant": true,
      "inputs": [],
      "name": "getNbReviews",
      "outputs": [
        {
          "name": "",
          "type": "uint256"
        }
      ],
      "payable": false,
      "stateMutability": "view",
      "type": "function"
    },
    {
      "constant": true,
      "inputs": [
        {
          "name": "_id",
          "type": "uint256"
        }
      ],
      "name": "getReview",
      "outputs": [
        {
          "name": "",
          "type": "uint256"
        },
        {
          "name": "",
          "type": "string"
        },
        {
          "name": "",
          "type": "string"
        },
        {
          "name": "",
          "type": "string"
        },
        {
          "name": "",
          "type": "uint16"
        }
      ],
      "payable": false,
      "stateMutability": "view",
      "type": "function"
    },
    {
      "constant": false,
      "inputs": [
        {
          "name": "_title",
          "type": "string"
        },
        {
          "name": "_content",
          "type": "string"
        },
        {
          "name": "_author",
          "type": "string"
        },
        {
          "name": "_authorAddress",
          "type": "address"
        }
      ],
      "name": "createReview",
      "outputs": [],
      "payable": false,
      "stateMutability": "nonpayable",
      "type": "function"
    },
    {
      "constant": false,
      "inputs": [
        {
          "name": "_id",
          "type": "uint256"
        }
      ],
      "name": "upvoteReview",
      "outputs": [
        {
          "name": "",
          "type": "address"
        }
      ],
      "payable": false,
      "stateMutability": "nonpayable",
      "type": "function"
    }
  ],
  "bytecode": "0x608060405234801561001057600080fd5b5060016000803373ffffffffffffffffffffffffffffffffffffffff1673ffffffffffffffffffffffffffffffffffffffff16815260200190815260200160002060006101000a81548160ff021916908315150217905550610bac806100776000396000f300608060405260043610610078576000357c0100000000000000000000000000000000000000000000000000000000900463ffffffff1680633ced67381461007d578063410986a4146100ea57806361afd5ac146101ff5780636c216a5014610242578063990581b61461026d578063c4a85bc114610401575b600080fd5b34801561008957600080fd5b506100a860048036038101908080359060200190929190505050610444565b604051808273ffffffffffffffffffffffffffffffffffffffff1673ffffffffffffffffffffffffffffffffffffffff16815260200191505060405180910390f35b3480156100f657600080fd5b506101fd600480360381019080803590602001908201803590602001908080601f0160208091040260200160405190810160405280939291908181526020018383808284378201915050505050509192919290803590602001908201803590602001908080601f0160208091040260200160405190810160405280939291908181526020018383808284378201915050505050509192919290803590602001908201803590602001908080601f0160208091040260200160405190810160405280939291908181526020018383808284378201915050505050509192919290803573ffffffffffffffffffffffffffffffffffffffff16906020019092919050505061053f565b005b34801561020b57600080fd5b50610240600480360381019080803573ffffffffffffffffffffffffffffffffffffffff1690602001909291905050506106e3565b005b34801561024e57600080fd5b5061025761079b565b6040518082815260200191505060405180910390f35b34801561027957600080fd5b50610298600480360381019080803590602001909291905050506107a8565b604051808681526020018060200180602001806020018561ffff1661ffff168152602001848103845288818151815260200191508051906020019080838360005b838110156102f45780820151818401526020810190506102d9565b50505050905090810190601f1680156103215780820380516001836020036101000a031916815260200191505b50848103835287818151815260200191508051906020019080838360005b8381101561035a57808201518184015260208101905061033f565b50505050905090810190601f1680156103875780820380516001836020036101000a031916815260200191505b50848103825286818151815260200191508051906020019080838360005b838110156103c05780820151818401526020810190506103a5565b50505050905090810190601f1680156103ed5780820380516001836020036101000a031916815260200191505b509850505050505050505060405180910390f35b34801561040d57600080fd5b50610442600480360381019080803573ffffffffffffffffffffffffffffffffffffffff1690602001909291905050506109d9565b005b6000600115156000803373ffffffffffffffffffffffffffffffffffffffff1673ffffffffffffffffffffffffffffffffffffffff16815260200190815260200160002060009054906101000a900460ff1615151415156104a457600080fd5b6001828154811015156104b357fe5b9060005260206000209060040201600301601481819054906101000a900461ffff168092919060010191906101000a81548161ffff021916908361ffff1602179055505060018281548110151561050657fe5b906000526020600020906004020160030160009054906101000a900473ffffffffffffffffffffffffffffffffffffffff169050919050565b610547610a91565b600115156000803373ffffffffffffffffffffffffffffffffffffffff1673ffffffffffffffffffffffffffffffffffffffff16815260200190815260200160002060009054906101000a900460ff1615151415156105a557600080fd5b60a0604051908101604052808681526020018581526020018481526020018373ffffffffffffffffffffffffffffffffffffffff168152602001600061ffff168152509050600181908060018154018082558091505090600182039060005260206000209060040201600090919290919091506000820151816000019080519060200190610634929190610adb565b506020820151816001019080519060200190610651929190610adb565b50604082015181600201908051906020019061066e929190610adb565b5060608201518160030160006101000a81548173ffffffffffffffffffffffffffffffffffffffff021916908373ffffffffffffffffffffffffffffffffffffffff16021790555060808201518160030160146101000a81548161ffff021916908361ffff1602179055505050505050505050565b600115156000803373ffffffffffffffffffffffffffffffffffffffff1673ffffffffffffffffffffffffffffffffffffffff16815260200190815260200160002060009054906101000a900460ff16151514151561074157600080fd5b60008060008373ffffffffffffffffffffffffffffffffffffffff1673ffffffffffffffffffffffffffffffffffffffff16815260200190815260200160002060006101000a81548160ff02191690831515021790555050565b6000600180549050905090565b600060608060606000806001878154811015156107c157fe5b90600052602060002090600402019050868160000182600201836001018460030160149054906101000a900461ffff16838054600181600116156101000203166002900480601f0160208091040260200160405190810160405280929190818152602001828054600181600116156101000203166002900480156108865780601f1061085b57610100808354040283529160200191610886565b820191906000526020600020905b81548152906001019060200180831161086957829003601f168201915b50505050509350828054600181600116156101000203166002900480601f0160208091040260200160405190810160405280929190818152602001828054600181600116156101000203166002900480156109225780601f106108f757610100808354040283529160200191610922565b820191906000526020600020905b81548152906001019060200180831161090557829003601f168201915b50505050509250818054600181600116156101000203166002900480601f0160208091040260200160405190810160405280929190818152602001828054600181600116156101000203166002900480156109be5780601f10610993576101008083540402835291602001916109be565b820191906000526020600020905b8154815290600101906020018083116109a157829003601f168201915b50505050509150955095509550955095505091939590929450565b600115156000803373ffffffffffffffffffffffffffffffffffffffff1673ffffffffffffffffffffffffffffffffffffffff16815260200190815260200160002060009054906101000a900460ff161515141515610a3757600080fd5b60016000808373ffffffffffffffffffffffffffffffffffffffff1673ffffffffffffffffffffffffffffffffffffffff16815260200190815260200160002060006101000a81548160ff02191690831515021790555050565b60a060405190810160405280606081526020016060815260200160608152602001600073ffffffffffffffffffffffffffffffffffffffff168152602001600061ffff1681525090565b828054600181600116156101000203166002900490600052602060002090601f016020900481019282601f10610b1c57805160ff1916838001178555610b4a565b82800160010185558215610b4a579182015b82811115610b49578251825591602001919060010190610b2e565b5b509050610b579190610b5b565b5090565b610b7d91905b80821115610b79576000816000905550600101610b61565b5090565b905600a165627a7a723058205cfd7a5b912cfc9e370378945731a56c37c054172110240ba099927b0fbf87e10029",
  "source": "pragma solidity ^0.4.23;\n\n/// @title EthLendTestStorage\n/// @author tiago\n/// @dev The storage for EthLendTest contracts\n\ncontract EthLendTestStorage {\n\n  // Controls whoever can access this storage contract,\n  // mainly the Core contract of EthLendTest\n  mapping(address => bool) accessAllowed;\n\n  constructor() public {\n    accessAllowed[msg.sender] = true;\n  }\n\n  modifier platform() {\n    require(accessAllowed[msg.sender] == true);\n    _;\n  }\n\n  function allowAccess(address _address) platform public {\n    accessAllowed[_address] = true;\n  }\n\n  function denyAccess(address _address) platform public {\n    accessAllowed[_address] = false;\n  }\n\n  // Reviews structure\n  struct Review {\n    string title;\n    string content;\n    string author;\n    address authorAddress;\n    uint16 positiveVotes; // We consider that these positive votes cannot go over uint16 MAX_VALUE\n  }\n\n  Review[] reviews;\n\n  function getNbReviews() public view returns (uint256) {\n    return reviews.length;\n  }\n\n  function getReview(uint256 _id) public view returns (uint256, string, string, string, uint16) {\n    Review storage review = reviews[_id];\n    return (_id, review.title, review.author, review.content, review.positiveVotes);\n  }\n\n  function createReview(string _title, string _content, string _author, address _authorAddress) platform public {\n    Review memory newReview = Review({\n      title: _title,\n      content: _content,\n      author: _author,\n      authorAddress: _authorAddress,\n      positiveVotes: 0\n    });\n\n    reviews.push(newReview);\n  }\n\n  function upvoteReview(uint256 _id) platform public returns (address) {\n    reviews[_id].positiveVotes++;\n    return reviews[_id].authorAddress;\n  }\n}\n",
  "sourcePath": "/Users/tiago/Dev/crypto/ethlend/eth/contracts/EthLendTestStorage.sol",
  "compiler": {
    "name": "solc",
    "version": "0.4.24+commit.e67f0147.Emscripten.clang"
  },
  "schemaVersion": "2.0.0",
  "updatedAt": "2018-07-16T11:59:41.563Z"
}