{
  "contractName": "EthLendTestCore",
  "abi": [
    {
      "inputs": [
        {
          "name": "_storageContract",
          "type": "address"
        }
      ],
      "payable": false,
      "stateMutability": "nonpayable",
      "type": "constructor"
    },
    {
      "constant": true,
      "inputs": [],
      "name": "getNbReviews",
      "outputs": [
        {
          "name": "",
          "type": "uint256"
        }
      ],
      "payable": false,
      "stateMutability": "view",
      "type": "function"
    },
    {
      "constant": true,
      "inputs": [
        {
          "name": "_id",
          "type": "uint256"
        }
      ],
      "name": "getReview",
      "outputs": [
        {
          "name": "",
          "type": "uint256"
        },
        {
          "name": "",
          "type": "string"
        },
        {
          "name": "",
          "type": "string"
        },
        {
          "name": "",
          "type": "string"
        },
        {
          "name": "",
          "type": "uint16"
        }
      ],
      "payable": false,
      "stateMutability": "view",
      "type": "function"
    },
    {
      "constant": false,
      "inputs": [
        {
          "name": "title",
          "type": "string"
        },
        {
          "name": "content",
          "type": "string"
        },
        {
          "name": "author",
          "type": "string"
        }
      ],
      "name": "createReview",
      "outputs": [],
      "payable": false,
      "stateMutability": "nonpayable",
      "type": "function"
    },
    {
      "constant": false,
      "inputs": [
        {
          "name": "_id",
          "type": "uint256"
        }
      ],
      "name": "upvoteReview",
      "outputs": [],
      "payable": true,
      "stateMutability": "payable",
      "type": "function"
    }
  ],
  "bytecode": "0x608060405234801561001057600080fd5b506040516020806109dd83398101806040528101908080519060200190929190505050806000806101000a81548173ffffffffffffffffffffffffffffffffffffffff021916908373ffffffffffffffffffffffffffffffffffffffff1602179055505061095a806100836000396000f300608060405260043610610062576000357c0100000000000000000000000000000000000000000000000000000000900463ffffffff1680633ced6738146100675780636c216a5014610087578063990581b6146100b2578063a9a4f15c14610246575b600080fd5b6100856004803603810190808035906020019092919050505061033b565b005b34801561009357600080fd5b5061009c610455565b6040518082815260200191505060405180910390f35b3480156100be57600080fd5b506100dd6004803603810190808035906020019092919050505061051c565b604051808681526020018060200180602001806020018561ffff1661ffff168152602001848103845288818151815260200191508051906020019080838360005b8381101561013957808201518184015260208101905061011e565b50505050905090810190601f1680156101665780820380516001836020036101000a031916815260200191505b50848103835287818151815260200191508051906020019080838360005b8381101561019f578082015181840152602081019050610184565b50505050905090810190601f1680156101cc5780820380516001836020036101000a031916815260200191505b50848103825286818151815260200191508051906020019080838360005b838110156102055780820151818401526020810190506101ea565b50505050905090810190601f1680156102325780820380516001836020036101000a031916815260200191505b509850505050505050505060405180910390f35b34801561025257600080fd5b50610339600480360381019080803590602001908201803590602001908080601f0160208091040260200160405190810160405280939291908181526020018383808284378201915050505050509192919290803590602001908201803590602001908080601f0160208091040260200160405190810160405280939291908181526020018383808284378201915050505050509192919290803590602001908201803590602001908080601f016020809104026020016040519081016040528093929190818152602001838380828437820191505050505050919291929050505061070e565b005b60008060009054906101000a900473ffffffffffffffffffffffffffffffffffffffff1673ffffffffffffffffffffffffffffffffffffffff16633ced6738836040518263ffffffff167c010000000000000000000000000000000000000000000000000000000002815260040180828152602001915050602060405180830381600087803b1580156103cd57600080fd5b505af11580156103e1573d6000803e3d6000fd5b505050506040513d60208110156103f757600080fd5b810190808051906020019092919050505090508073ffffffffffffffffffffffffffffffffffffffff166108fc349081150290604051600060405180830381858888f19350505050158015610450573d6000803e3d6000fd5b505050565b60008060009054906101000a900473ffffffffffffffffffffffffffffffffffffffff1673ffffffffffffffffffffffffffffffffffffffff16636c216a506040518163ffffffff167c0100000000000000000000000000000000000000000000000000000000028152600401602060405180830381600087803b1580156104dc57600080fd5b505af11580156104f0573d6000803e3d6000fd5b505050506040513d602081101561050657600080fd5b8101908080519060200190929190505050905090565b6000606080606060008060009054906101000a900473ffffffffffffffffffffffffffffffffffffffff1673ffffffffffffffffffffffffffffffffffffffff1663990581b6876040518263ffffffff167c010000000000000000000000000000000000000000000000000000000002815260040180828152602001915050600060405180830381600087803b1580156105b557600080fd5b505af11580156105c9573d6000803e3d6000fd5b505050506040513d6000823e3d601f19601f8201168201806040525060a08110156105f357600080fd5b8101908080519060200190929190805164010000000081111561061557600080fd5b8281019050602081018481111561062b57600080fd5b815185600182028301116401000000008211171561064857600080fd5b5050929190602001805164010000000081111561066457600080fd5b8281019050602081018481111561067a57600080fd5b815185600182028301116401000000008211171561069757600080fd5b505092919060200180516401000000008111156106b357600080fd5b828101905060208101848111156106c957600080fd5b81518560018202830111640100000000821117156106e657600080fd5b5050929190602001805190602001909291905050509450945094509450945091939590929450565b6000809054906101000a900473ffffffffffffffffffffffffffffffffffffffff1673ffffffffffffffffffffffffffffffffffffffff1663410986a4848484336040518563ffffffff167c0100000000000000000000000000000000000000000000000000000000028152600401808060200180602001806020018573ffffffffffffffffffffffffffffffffffffffff1673ffffffffffffffffffffffffffffffffffffffff168152602001848103845288818151815260200191508051906020019080838360005b838110156107f45780820151818401526020810190506107d9565b50505050905090810190601f1680156108215780820380516001836020036101000a031916815260200191505b50848103835287818151815260200191508051906020019080838360005b8381101561085a57808201518184015260208101905061083f565b50505050905090810190601f1680156108875780820380516001836020036101000a031916815260200191505b50848103825286818151815260200191508051906020019080838360005b838110156108c05780820151818401526020810190506108a5565b50505050905090810190601f1680156108ed5780820380516001836020036101000a031916815260200191505b50975050505050505050600060405180830381600087803b15801561091157600080fd5b505af1158015610925573d6000803e3d6000fd5b505050505050505600a165627a7a72305820a1c40283d8f985bec68931021820719ac8ec4783dc4c455730b4f6442965c9750029",
  "source": "pragma solidity ^0.4.23;\n\nimport \"./EthLendTestStorage.sol\";\n\n/// @title EthLendTestCore\n/// @author tiago\n/// @dev The core contract for EthLendTest\n\ncontract EthLendTestCore {\n\n  EthLendTestStorage storageContract;\n\n  /// @notice Creates the main EthLendTest smart contract instance.\n  constructor(address _storageContract) public {\n    storageContract = EthLendTestStorage(_storageContract);\n  }\n\n  function getNbReviews() public view returns (uint256) {\n    return storageContract.getNbReviews();\n  }\n\n  function getReview(uint256 _id) public view returns (uint256, string, string, string, uint16) {\n    return storageContract.getReview(_id);\n  }\n\n  function createReview(string title, string content, string author) public {\n    return storageContract.createReview(title, content, author, msg.sender);\n  }\n\n  function upvoteReview(uint256 _id) public payable {\n    address authorAddress = storageContract.upvoteReview(_id);\n    authorAddress.transfer(msg.value);\n  }\n}\n",
  "sourcePath": "/Users/tiago/Dev/crypto/ethlend/eth/contracts/EthLendTestCore.sol",
  "compiler": {
    "name": "solc",
    "version": "0.4.24+commit.e67f0147.Emscripten.clang"
  },
  "schemaVersion": "2.0.0",
  "updatedAt": "2018-07-16T08:32:20.196Z"
}